{
  "_format": "hh-sol-artifact-1",
  "contractName": "ScoreConsumer",
  "sourceName": "contracts/ScoreConsumer.sol",
  "abi": [
    {
      "inputs": [
        {
          "internalType": "address",
          "name": "_updater",
          "type": "address"
        },
        {
          "internalType": "address",
          "name": "_owner",
          "type": "address"
        }
      ],
      "stateMutability": "nonpayable",
      "type": "constructor"
    },
    {
      "inputs": [
        {
          "internalType": "address",
          "name": "owner",
          "type": "address"
        }
      ],
      "name": "OwnableInvalidOwner",
      "type": "error"
    },
    {
      "inputs": [
        {
          "internalType": "address",
          "name": "account",
          "type": "address"
        }
      ],
      "name": "OwnableUnauthorizedAccount",
      "type": "error"
    },
    {
      "anonymous": false,
      "inputs": [
        {
          "indexed": true,
          "internalType": "address",
          "name": "user",
          "type": "address"
        },
        {
          "components": [
            {
              "internalType": "uint256",
              "name": "repay01",
              "type": "uint256"
            },
            {
              "internalType": "uint256",
              "name": "diversity01",
              "type": "uint256"
            },
            {
              "internalType": "uint256",
              "name": "age01",
              "type": "uint256"
            },
            {
              "internalType": "uint256",
              "name": "activity01",
              "type": "uint256"
            },
            {
              "internalType": "uint256",
              "name": "risk01",
              "type": "uint256"
            },
            {
              "internalType": "uint256",
              "name": "social01",
              "type": "uint256"
            },
            {
              "internalType": "uint64",
              "name": "lastUpdated",
              "type": "uint64"
            }
          ],
          "indexed": false,
          "internalType": "struct ScoreConsumer.Factors",
          "name": "f",
          "type": "tuple"
        },
        {
          "indexed": false,
          "internalType": "uint256",
          "name": "scoreOutOf1000",
          "type": "uint256"
        }
      ],
      "name": "FactorsUpdated",
      "type": "event"
    },
    {
      "anonymous": false,
      "inputs": [
        {
          "indexed": true,
          "internalType": "address",
          "name": "previousOwner",
          "type": "address"
        },
        {
          "indexed": true,
          "internalType": "address",
          "name": "newOwner",
          "type": "address"
        }
      ],
      "name": "OwnershipTransferred",
      "type": "event"
    },
    {
      "anonymous": false,
      "inputs": [
        {
          "indexed": true,
          "internalType": "address",
          "name": "updater",
          "type": "address"
        }
      ],
      "name": "UpdaterChanged",
      "type": "event"
    },
    {
      "anonymous": false,
      "inputs": [
        {
          "indexed": false,
          "internalType": "uint16",
          "name": "wRepay",
          "type": "uint16"
        },
        {
          "indexed": false,
          "internalType": "uint16",
          "name": "wDiversity",
          "type": "uint16"
        },
        {
          "indexed": false,
          "internalType": "uint16",
          "name": "wAge",
          "type": "uint16"
        },
        {
          "indexed": false,
          "internalType": "uint16",
          "name": "wActivity",
          "type": "uint16"
        },
        {
          "indexed": false,
          "internalType": "uint16",
          "name": "wRisk",
          "type": "uint16"
        },
        {
          "indexed": false,
          "internalType": "uint16",
          "name": "wSocial",
          "type": "uint16"
        }
      ],
      "name": "WeightsChanged",
      "type": "event"
    },
    {
      "inputs": [],
      "name": "DENOM",
      "outputs": [
        {
          "internalType": "uint16",
          "name": "",
          "type": "uint16"
        }
      ],
      "stateMutability": "view",
      "type": "function"
    },
    {
      "inputs": [],
      "name": "owner",
      "outputs": [
        {
          "internalType": "address",
          "name": "",
          "type": "address"
        }
      ],
      "stateMutability": "view",
      "type": "function"
    },
    {
      "inputs": [],
      "name": "renounceOwnership",
      "outputs": [],
      "stateMutability": "nonpayable",
      "type": "function"
    },
    {
      "inputs": [
        {
          "internalType": "address",
          "name": "user",
          "type": "address"
        }
      ],
      "name": "score01",
      "outputs": [
        {
          "internalType": "uint256",
          "name": "",
          "type": "uint256"
        }
      ],
      "stateMutability": "view",
      "type": "function"
    },
    {
      "inputs": [
        {
          "internalType": "address",
          "name": "user",
          "type": "address"
        }
      ],
      "name": "scoreOf",
      "outputs": [
        {
          "internalType": "uint256",
          "name": "outOf1000",
          "type": "uint256"
        }
      ],
      "stateMutability": "view",
      "type": "function"
    },
    {
      "inputs": [
        {
          "internalType": "address",
          "name": "u",
          "type": "address"
        }
      ],
      "name": "setUpdater",
      "outputs": [],
      "stateMutability": "nonpayable",
      "type": "function"
    },
    {
      "inputs": [
        {
          "internalType": "uint16",
          "name": "_wRepay",
          "type": "uint16"
        },
        {
          "internalType": "uint16",
          "name": "_wDiversity",
          "type": "uint16"
        },
        {
          "internalType": "uint16",
          "name": "_wAge",
          "type": "uint16"
        },
        {
          "internalType": "uint16",
          "name": "_wActivity",
          "type": "uint16"
        },
        {
          "internalType": "uint16",
          "name": "_wRisk",
          "type": "uint16"
        },
        {
          "internalType": "uint16",
          "name": "_wSocial",
          "type": "uint16"
        }
      ],
      "name": "setWeights",
      "outputs": [],
      "stateMutability": "nonpayable",
      "type": "function"
    },
    {
      "inputs": [
        {
          "internalType": "address",
          "name": "newOwner",
          "type": "address"
        }
      ],
      "name": "transferOwnership",
      "outputs": [],
      "stateMutability": "nonpayable",
      "type": "function"
    },
    {
      "inputs": [
        {
          "internalType": "address",
          "name": "user",
          "type": "address"
        },
        {
          "internalType": "uint256",
          "name": "repay01",
          "type": "uint256"
        },
        {
          "internalType": "uint256",
          "name": "diversity01",
          "type": "uint256"
        },
        {
          "internalType": "uint256",
          "name": "age01",
          "type": "uint256"
        },
        {
          "internalType": "uint256",
          "name": "activity01",
          "type": "uint256"
        },
        {
          "internalType": "uint256",
          "name": "risk01",
          "type": "uint256"
        },
        {
          "internalType": "uint256",
          "name": "social01",
          "type": "uint256"
        }
      ],
      "name": "updateFactors",
      "outputs": [],
      "stateMutability": "nonpayable",
      "type": "function"
    },
    {
      "inputs": [],
      "name": "updater",
      "outputs": [
        {
          "internalType": "address",
          "name": "",
          "type": "address"
        }
      ],
      "stateMutability": "view",
      "type": "function"
    },
    {
      "inputs": [
        {
          "internalType": "address",
          "name": "",
          "type": "address"
        }
      ],
      "name": "userFactors",
      "outputs": [
        {
          "internalType": "uint256",
          "name": "repay01",
          "type": "uint256"
        },
        {
          "internalType": "uint256",
          "name": "diversity01",
          "type": "uint256"
        },
        {
          "internalType": "uint256",
          "name": "age01",
          "type": "uint256"
        },
        {
          "internalType": "uint256",
          "name": "activity01",
          "type": "uint256"
        },
        {
          "internalType": "uint256",
          "name": "risk01",
          "type": "uint256"
        },
        {
          "internalType": "uint256",
          "name": "social01",
          "type": "uint256"
        },
        {
          "internalType": "uint64",
          "name": "lastUpdated",
          "type": "uint64"
        }
      ],
      "stateMutability": "view",
      "type": "function"
    },
    {
      "inputs": [],
      "name": "wActivity",
      "outputs": [
        {
          "internalType": "uint16",
          "name": "",
          "type": "uint16"
        }
      ],
      "stateMutability": "view",
      "type": "function"
    },
    {
      "inputs": [],
      "name": "wAge",
      "outputs": [
        {
          "internalType": "uint16",
          "name": "",
          "type": "uint16"
        }
      ],
      "stateMutability": "view",
      "type": "function"
    },
    {
      "inputs": [],
      "name": "wDiversity",
      "outputs": [
        {
          "internalType": "uint16",
          "name": "",
          "type": "uint16"
        }
      ],
      "stateMutability": "view",
      "type": "function"
    },
    {
      "inputs": [],
      "name": "wRepay",
      "outputs": [
        {
          "internalType": "uint16",
          "name": "",
          "type": "uint16"
        }
      ],
      "stateMutability": "view",
      "type": "function"
    },
    {
      "inputs": [],
      "name": "wRisk",
      "outputs": [
        {
          "internalType": "uint16",
          "name": "",
          "type": "uint16"
        }
      ],
      "stateMutability": "view",
      "type": "function"
    },
    {
      "inputs": [],
      "name": "wSocial",
      "outputs": [
        {
          "internalType": "uint16",
          "name": "",
          "type": "uint16"
        }
      ],
      "stateMutability": "view",
      "type": "function"
    }
  ],
  "bytecode": "0x6080604052610bb8600260006101000a81548161ffff021916908361ffff1602179055506107d06002806101000a81548161ffff021916908361ffff1602179055506105dc600260046101000a81548161ffff021916908361ffff1602179055506103e8600260066101000a81548161ffff021916908361ffff1602179055506105dc600260086101000a81548161ffff021916908361ffff1602179055506103e86002600a6101000a81548161ffff021916908361ffff160217905550348015620000ca57600080fd5b5060405162001b5838038062001b588339818101604052810190620000f0919062000445565b80600073ffffffffffffffffffffffffffffffffffffffff168173ffffffffffffffffffffffffffffffffffffffff1603620001665760006040517f1e4fbdf70000000000000000000000000000000000000000000000000000000081526004016200015d91906200049d565b60405180910390fd5b62000177816200031760201b60201c565b50600073ffffffffffffffffffffffffffffffffffffffff168273ffffffffffffffffffffffffffffffffffffffff1603620001ea576040517f08c379a0000000000000000000000000000000000000000000000000000000008152600401620001e1906200051b565b60405180910390fd5b816002600c6101000a81548173ffffffffffffffffffffffffffffffffffffffff021916908373ffffffffffffffffffffffffffffffffffffffff1602179055508173ffffffffffffffffffffffffffffffffffffffff167f38774259a0eef99e0cc14ede4fb3526a6bc483f010ec0a8d40c06a9ee2db17c660405160405180910390a27f1713ea434f05e257aa7c885b7799e2717a44bbee7a392c11807c3c0e8064246f600260009054906101000a900461ffff1660028054906101000a900461ffff16600260049054906101000a900461ffff16600260069054906101000a900461ffff16600260089054906101000a900461ffff166002600a9054906101000a900461ffff1660405162000307969594939291906200055c565b60405180910390a15050620005c9565b60008060009054906101000a900473ffffffffffffffffffffffffffffffffffffffff169050816000806101000a81548173ffffffffffffffffffffffffffffffffffffffff021916908373ffffffffffffffffffffffffffffffffffffffff1602179055508173ffffffffffffffffffffffffffffffffffffffff168173ffffffffffffffffffffffffffffffffffffffff167f8be0079c531659141344cd1fd0a4f28419497f9722a3daafe3b4186f6b6457e060405160405180910390a35050565b600080fd5b600073ffffffffffffffffffffffffffffffffffffffff82169050919050565b60006200040d82620003e0565b9050919050565b6200041f8162000400565b81146200042b57600080fd5b50565b6000815190506200043f8162000414565b92915050565b600080604083850312156200045f576200045e620003db565b5b60006200046f858286016200042e565b925050602062000482858286016200042e565b9150509250929050565b620004978162000400565b82525050565b6000602082019050620004b460008301846200048c565b92915050565b600082825260208201905092915050565b7f757064617465723d300000000000000000000000000000000000000000000000600082015250565b600062000503600983620004ba565b91506200051082620004cb565b602082019050919050565b600060208201905081810360008301526200053681620004f4565b9050919050565b600061ffff82169050919050565b62000556816200053d565b82525050565b600060c0820190506200057360008301896200054b565b6200058260208301886200054b565b6200059160408301876200054b565b620005a060608301866200054b565b620005af60808301856200054b565b620005be60a08301846200054b565b979650505050505050565b61157f80620005d96000396000f3fe608060405234801561001057600080fd5b506004361061010b5760003560e01c80638550d332116100a2578063b7ab331c11610071578063b7ab331c1461028a578063c503f50e146102a6578063df034cd0146102c4578063e9781c3c146102e2578063f2fde38b146103125761010b565b80638550d332146102145780638b49b5a3146102325780638da5cb5b146102505780639d54f4191461026e5761010b565b80635f0f68c5116100de5780635f0f68c5146101985780636c203f75146101ce578063715018a6146101ec578063716bfd82146101f65761010b565b80630e2ee86214610110578063133af4561461012e57806316343da41461015e578063358a83461461017c575b600080fd5b61011861032e565b6040516101259190610df4565b60405180910390f35b61014860048036038101906101439190610e72565b610342565b6040516101559190610eb8565b60405180910390f35b610166610374565b6040516101739190610df4565b60405180910390f35b61019660048036038101906101919190610eff565b61037a565b005b6101b260048036038101906101ad9190610e72565b6105fa565b6040516101c59796959493929190610fc4565b60405180910390f35b6101d6610650565b6040516101e39190610df4565b60405180910390f35b6101f4610664565b005b6101fe610678565b60405161020b9190610df4565b60405180910390f35b61021c61068c565b6040516102299190610df4565b60405180910390f35b61023a6106a0565b6040516102479190610df4565b60405180910390f35b6102586106b2565b6040516102659190611042565b60405180910390f35b61028860048036038101906102839190610e72565b6106db565b005b6102a4600480360381019061029f9190611089565b6107d9565b005b6102ae6109b8565b6040516102bb9190610df4565b60405180910390f35b6102cc6109cc565b6040516102d99190611042565b60405180910390f35b6102fc60048036038101906102f79190610e72565b6109f2565b6040516103099190610eb8565b60405180910390f35b61032c60048036038101906103279190610e72565b610bd6565b005b600260049054906101000a900461ffff1681565b6000670de0b6b3a76400006103e8610359846109f2565b6103639190611145565b61036d91906111b6565b9050919050565b61271081565b6002600c9054906101000a900473ffffffffffffffffffffffffffffffffffffffff1673ffffffffffffffffffffffffffffffffffffffff163373ffffffffffffffffffffffffffffffffffffffff161461040a576040517f08c379a000000000000000000000000000000000000000000000000000000000815260040161040190611244565b60405180910390fd5b600073ffffffffffffffffffffffffffffffffffffffff168773ffffffffffffffffffffffffffffffffffffffff1603610479576040517f08c379a0000000000000000000000000000000000000000000000000000000008152600401610470906112b0565b60405180910390fd5b60006040518060e0016040528061048f89610c5c565b815260200161049d88610c5c565b81526020016104ab87610c5c565b81526020016104b986610c5c565b81526020016104c785610c5c565b81526020016104d584610c5c565b81526020014267ffffffffffffffff16815250905080600160008a73ffffffffffffffffffffffffffffffffffffffff1673ffffffffffffffffffffffffffffffffffffffff168152602001908152602001600020600082015181600001556020820151816001015560408201518160020155606082015181600301556080820151816004015560a0820151816005015560c08201518160060160006101000a81548167ffffffffffffffff021916908367ffffffffffffffff1602179055509050508773ffffffffffffffffffffffffffffffffffffffff167f57ca9d1b040073d612bcae3a7924133c6b0452c079fbab9ead1eddf8183197c0826105da8b610342565b6040516105e892919061137c565b60405180910390a25050505050505050565b60016020528060005260406000206000915090508060000154908060010154908060020154908060030154908060040154908060050154908060060160009054906101000a900467ffffffffffffffff16905087565b600260069054906101000a900461ffff1681565b61066c610c84565b6106766000610d0b565b565b600260089054906101000a900461ffff1681565b6002600a9054906101000a900461ffff1681565b60028054906101000a900461ffff1681565b60008060009054906101000a900473ffffffffffffffffffffffffffffffffffffffff16905090565b6106e3610c84565b600073ffffffffffffffffffffffffffffffffffffffff168173ffffffffffffffffffffffffffffffffffffffff1603610752576040517f08c379a0000000000000000000000000000000000000000000000000000000008152600401610749906113f2565b60405180910390fd5b806002600c6101000a81548173ffffffffffffffffffffffffffffffffffffffff021916908373ffffffffffffffffffffffffffffffffffffffff1602179055508073ffffffffffffffffffffffffffffffffffffffff167f38774259a0eef99e0cc14ede4fb3526a6bc483f010ec0a8d40c06a9ee2db17c660405160405180910390a250565b6107e1610c84565b61271061ffff1681838587898b6107f89190611412565b6108029190611412565b61080c9190611412565b6108169190611412565b6108209190611412565b61ffff1614610864576040517f08c379a000000000000000000000000000000000000000000000000000000000815260040161085b90611494565b60405180910390fd5b85600260006101000a81548161ffff021916908361ffff160217905550846002806101000a81548161ffff021916908361ffff16021790555083600260046101000a81548161ffff021916908361ffff16021790555082600260066101000a81548161ffff021916908361ffff16021790555081600260086101000a81548161ffff021916908361ffff160217905550806002600a6101000a81548161ffff021916908361ffff1602179055507f1713ea434f05e257aa7c885b7799e2717a44bbee7a392c11807c3c0e8064246f600260009054906101000a900461ffff1660028054906101000a900461ffff16600260049054906101000a900461ffff16600260069054906101000a900461ffff16600260089054906101000a900461ffff166002600a9054906101000a900461ffff166040516109a8969594939291906114b4565b60405180910390a1505050505050565b600260009054906101000a900461ffff1681565b6002600c9054906101000a900473ffffffffffffffffffffffffffffffffffffffff1681565b600080600160008473ffffffffffffffffffffffffffffffffffffffff1673ffffffffffffffffffffffffffffffffffffffff1681526020019081526020016000206040518060e00160405290816000820154815260200160018201548152602001600282015481526020016003820154815260200160048201548152602001600582015481526020016006820160009054906101000a900467ffffffffffffffff1667ffffffffffffffff1667ffffffffffffffff16815250509050600061271061ffff166002600a9054906101000a900461ffff1661ffff168360a00151610adc9190611145565b600260089054906101000a900461ffff1661ffff168460800151610b009190611145565b600260069054906101000a900461ffff1661ffff168560600151610b249190611145565b600260049054906101000a900461ffff1661ffff168660400151610b489190611145565b60028054906101000a900461ffff1661ffff168760200151610b6a9190611145565b600260009054906101000a900461ffff1661ffff168860000151610b8e9190611145565b610b989190611515565b610ba29190611515565b610bac9190611515565b610bb69190611515565b610bc09190611515565b610bca91906111b6565b90508092505050919050565b610bde610c84565b600073ffffffffffffffffffffffffffffffffffffffff168173ffffffffffffffffffffffffffffffffffffffff1603610c505760006040517f1e4fbdf7000000000000000000000000000000000000000000000000000000008152600401610c479190611042565b60405180910390fd5b610c5981610d0b565b50565b6000670de0b6b3a76400008211610c735781610c7d565b670de0b6b3a76400005b9050919050565b610c8c610dcf565b73ffffffffffffffffffffffffffffffffffffffff16610caa6106b2565b73ffffffffffffffffffffffffffffffffffffffff1614610d0957610ccd610dcf565b6040517f118cdaa7000000000000000000000000000000000000000000000000000000008152600401610d009190611042565b60405180910390fd5b565b60008060009054906101000a900473ffffffffffffffffffffffffffffffffffffffff169050816000806101000a81548173ffffffffffffffffffffffffffffffffffffffff021916908373ffffffffffffffffffffffffffffffffffffffff1602179055508173ffffffffffffffffffffffffffffffffffffffff168173ffffffffffffffffffffffffffffffffffffffff167f8be0079c531659141344cd1fd0a4f28419497f9722a3daafe3b4186f6b6457e060405160405180910390a35050565b600033905090565b600061ffff82169050919050565b610dee81610dd7565b82525050565b6000602082019050610e096000830184610de5565b92915050565b600080fd5b600073ffffffffffffffffffffffffffffffffffffffff82169050919050565b6000610e3f82610e14565b9050919050565b610e4f81610e34565b8114610e5a57600080fd5b50565b600081359050610e6c81610e46565b92915050565b600060208284031215610e8857610e87610e0f565b5b6000610e9684828501610e5d565b91505092915050565b6000819050919050565b610eb281610e9f565b82525050565b6000602082019050610ecd6000830184610ea9565b92915050565b610edc81610e9f565b8114610ee757600080fd5b50565b600081359050610ef981610ed3565b92915050565b600080600080600080600060e0888a031215610f1e57610f1d610e0f565b5b6000610f2c8a828b01610e5d565b9750506020610f3d8a828b01610eea565b9650506040610f4e8a828b01610eea565b9550506060610f5f8a828b01610eea565b9450506080610f708a828b01610eea565b93505060a0610f818a828b01610eea565b92505060c0610f928a828b01610eea565b91505092959891949750929550565b600067ffffffffffffffff82169050919050565b610fbe81610fa1565b82525050565b600060e082019050610fd9600083018a610ea9565b610fe66020830189610ea9565b610ff36040830188610ea9565b6110006060830187610ea9565b61100d6080830186610ea9565b61101a60a0830185610ea9565b61102760c0830184610fb5565b98975050505050505050565b61103c81610e34565b82525050565b60006020820190506110576000830184611033565b92915050565b61106681610dd7565b811461107157600080fd5b50565b6000813590506110838161105d565b92915050565b60008060008060008060c087890312156110a6576110a5610e0f565b5b60006110b489828a01611074565b96505060206110c589828a01611074565b95505060406110d689828a01611074565b94505060606110e789828a01611074565b93505060806110f889828a01611074565b92505060a061110989828a01611074565b9150509295509295509295565b7f4e487b7100000000000000000000000000000000000000000000000000000000600052601160045260246000fd5b600061115082610e9f565b915061115b83610e9f565b925082820261116981610e9f565b915082820484148315176111805761117f611116565b5b5092915050565b7f4e487b7100000000000000000000000000000000000000000000000000000000600052601260045260246000fd5b60006111c182610e9f565b91506111cc83610e9f565b9250826111dc576111db611187565b5b828204905092915050565b600082825260208201905092915050565b7f6e6f742075706461746572000000000000000000000000000000000000000000600082015250565b600061122e600b836111e7565b9150611239826111f8565b602082019050919050565b6000602082019050818103600083015261125d81611221565b9050919050565b7f757365723d300000000000000000000000000000000000000000000000000000600082015250565b600061129a6006836111e7565b91506112a582611264565b602082019050919050565b600060208201905081810360008301526112c98161128d565b9050919050565b6112d981610e9f565b82525050565b6112e881610fa1565b82525050565b60e08201600082015161130460008501826112d0565b50602082015161131760208501826112d0565b50604082015161132a60408501826112d0565b50606082015161133d60608501826112d0565b50608082015161135060808501826112d0565b5060a082015161136360a08501826112d0565b5060c082015161137660c08501826112df565b50505050565b60006101008201905061139260008301856112ee565b61139f60e0830184610ea9565b9392505050565b7f757064617465723d300000000000000000000000000000000000000000000000600082015250565b60006113dc6009836111e7565b91506113e7826113a6565b602082019050919050565b6000602082019050818103600083015261140b816113cf565b9050919050565b600061141d82610dd7565b915061142883610dd7565b9250828201905061ffff81111561144257611441611116565b5b92915050565b7f73756d20213d2031303025000000000000000000000000000000000000000000600082015250565b600061147e600b836111e7565b915061148982611448565b602082019050919050565b600060208201905081810360008301526114ad81611471565b9050919050565b600060c0820190506114c96000830189610de5565b6114d66020830188610de5565b6114e36040830187610de5565b6114f06060830186610de5565b6114fd6080830185610de5565b61150a60a0830184610de5565b979650505050505050565b600061152082610e9f565b915061152b83610e9f565b925082820190508082111561154357611542611116565b5b9291505056fea26469706673582212203dece75eac8bd34695bc72c8eb905618ca0fa116ac5afda3befe1a87cf763f9864736f6c63430008180033",
  "linkReferences": {},
  "deployedLinkReferences": {}
}